{
  "contracts/MyContacts.sol": {
    "MyContract": {
      "abi": [
        {
          "inputs": [
            {
              "internalType": "uint256",
              "name": "_money",
              "type": "uint256"
            }
          ],
          "stateMutability": "nonpayable",
          "type": "constructor"
        },
        {
          "inputs": [],
          "name": "allOfMoney",
          "outputs": [
            {
              "internalType": "uint256",
              "name": "",
              "type": "uint256"
            }
          ],
          "stateMutability": "view",
          "type": "function"
        },
        {
          "inputs": [
            {
              "internalType": "address",
              "name": "",
              "type": "address"
            }
          ],
          "name": "balance",
          "outputs": [
            {
              "internalType": "uint256",
              "name": "",
              "type": "uint256"
            }
          ],
          "stateMutability": "view",
          "type": "function"
        },
        {
          "inputs": [
            {
              "internalType": "bytes32",
              "name": "c__0xad85f869",
              "type": "bytes32"
            }
          ],
          "name": "c_0xad85f869",
          "outputs": [],
          "stateMutability": "pure",
          "type": "function"
        },
        {
          "inputs": [
            {
              "internalType": "uint256",
              "name": "_money",
              "type": "uint256"
            }
          ],
          "name": "changeMoney",
          "outputs": [],
          "stateMutability": "nonpayable",
          "type": "function"
        },
        {
          "inputs": [
            {
              "internalType": "address",
              "name": "to",
              "type": "address"
            },
            {
              "internalType": "uint256",
              "name": "_value",
              "type": "uint256"
            }
          ],
          "name": "transferMoney",
          "outputs": [
            {
              "internalType": "bool",
              "name": "",
              "type": "bool"
            }
          ],
          "stateMutability": "nonpayable",
          "type": "function"
        }
      ],
      "evm": {
        "bytecode": {
          "linkReferences": {},
          "object": "608060405234801561001057600080fd5b50604051610a0f380380610a0f83398181016040528101906100329190610197565b6100647f169a0b8d3d18611f8398e691ec6d511e13e4d10834a93ef523c1f8c1eea20f0560001b61017f60201b60201c565b6100967fd276a97636bc9c7e0d57dd7dd4490ea057ed84e3ebe8652c06aa8e650e27991a60001b61017f60201b60201c565b6100c87f3c50c64c4c8a39513a5a322a7e9efc3b742c980a91a314d0eb1c145896af331560001b61017f60201b60201c565b806000819055506101017fe999c18456403768ece1b8e3738a9e775dd5043196349ee4e317ae0082298e0060001b61017f60201b60201c565b6101337f27e0e2bafb64227f448ef1eca7ed87ea2299f2d2f0c0d771ee778eb39279b73160001b61017f60201b60201c565b600054600160003373ffffffffffffffffffffffffffffffffffffffff1673ffffffffffffffffffffffffffffffffffffffff16815260200190815260200160002081905550506101ea565b50565b600081519050610191816101d3565b92915050565b6000602082840312156101ad576101ac6101ce565b5b60006101bb84828501610182565b91505092915050565b6000819050919050565b600080fd5b6101dc816101c4565b81146101e757600080fd5b50565b610816806101f96000396000f3fe608060405234801561001057600080fd5b50600436106100575760003560e01c80631395b1a41461005c5780635e7c64161461007a5780636f31686714610096578063e3d670d7146100b2578063fee666ad146100e2575b600080fd5b610064610112565b6040516100719190610670565b60405180910390f35b610094600480360381019061008f91906105dd565b6101a0565b005b6100b060048036038101906100ab919061060a565b6101a3565b005b6100cc60048036038101906100c79190610570565b610231565b6040516100d99190610670565b60405180910390f35b6100fc60048036038101906100f7919061059d565b610249565b6040516101099190610655565b60405180910390f35b60006101407f804c9b39aefaf3eef8c1f6f666a65e02fb228213bdd7c14b61d8038316429e2360001b6101a0565b61016c7ff6b588a99072f42b44e481d6ed64d07bda349068ccdfcf01983a4df9c18362f060001b6101a0565b6101987f18b661f63e7fe86d5b6df7f7b5c4d2525f730245f4b8edc5661fd8933b89ce5b60001b6101a0565b600054905090565b50565b6101cf7f696e56b8acdc35e687bf8e14fb098ea4e67aae8d127f55ed884ef791eea215b960001b6101a0565b6101fb7f6756299965116b02f947f31eb8618e65e8655209f066b97c0bf6d515302444d960001b6101a0565b6102277f427016bc44485ec982c590fbd50f0e0a0c4afbd13b69fb65dbc6b7e6e7bf1e6b60001b6101a0565b8060008190555050565b60016020528060005260406000206000915090505481565b60006102777fc3eb1ccd62d975320554d5c811de415b0c34a9136c9cc2a6c6f80b310d588d1960001b6101a0565b6102a37f172f67332d0a70abca6e1f8b4376ed1682ec98387100a9070567990fc77a0ad860001b6101a0565b6102cf7f7ef45d1154357c159ed1e172424f5f1acc0bf52a8e445b8d9d2601ed3904319760001b6101a0565b6102fb7fd5bef40998242a2c87bc8dbf1aa9deb116ae6306906be45ea1d6db4483cc4e4460001b6101a0565b81600160003373ffffffffffffffffffffffffffffffffffffffff1673ffffffffffffffffffffffffffffffffffffffff16815260200190815260200160002054101561034757600080fd5b6103737f1a46e8eff3c0be5ff61e1538fa0a4b392091ed0810e22f53763681f63dc9bc2f60001b6101a0565b61039f7f9c22e9dad6c5b1fdcfcc8077d3e859cde47f440b0d0d7e0adb196dabd010885660001b6101a0565b6103cb7f3e581b42d35586ba74ff9e72a633026fe32d107c278cf995f143bb17b37f46cc60001b6101a0565b81600160008573ffffffffffffffffffffffffffffffffffffffff1673ffffffffffffffffffffffffffffffffffffffff168152602001908152602001600020600082825461041a919061068b565b9250508190555061044d7f39e0e79d97180845152f9f8d3dd7202597899642ffec059de5c2942457064d4b60001b6101a0565b6104797f5b543b13f0cb492c548dc9efcbea2fc4660f4133245a0b2cfeb4468170047b6360001b6101a0565b81600160003373ffffffffffffffffffffffffffffffffffffffff1673ffffffffffffffffffffffffffffffffffffffff16815260200190815260200160002060008282546104c891906106e1565b925050819055506104fb7f6ef1de0b3fe20833d04d43f7f4db9c92195da217b3157859f0ac9621a021ebd560001b6101a0565b6105277fa3dcaa2dcd34083ca8223972718f815248aa74b5b451baa9b06609490950c9bf60001b6101a0565b6001905092915050565b6000813590506105408161079b565b92915050565b600081359050610555816107b2565b92915050565b60008135905061056a816107c9565b92915050565b60006020828403121561058657610585610796565b5b600061059484828501610531565b91505092915050565b600080604083850312156105b4576105b3610796565b5b60006105c285828601610531565b92505060206105d38582860161055b565b9150509250929050565b6000602082840312156105f3576105f2610796565b5b600061060184828501610546565b91505092915050565b6000602082840312156106205761061f610796565b5b600061062e8482850161055b565b91505092915050565b61064081610727565b82525050565b61064f8161075d565b82525050565b600060208201905061066a6000830184610637565b92915050565b60006020820190506106856000830184610646565b92915050565b60006106968261075d565b91506106a18361075d565b9250827fffffffffffffffffffffffffffffffffffffffffffffffffffffffffffffffff038211156106d6576106d5610767565b5b828201905092915050565b60006106ec8261075d565b91506106f78361075d565b92508282101561070a57610709610767565b5b828203905092915050565b60006107208261073d565b9050919050565b60008115159050919050565b6000819050919050565b600073ffffffffffffffffffffffffffffffffffffffff82169050919050565b6000819050919050565b7f4e487b7100000000000000000000000000000000000000000000000000000000600052601160045260246000fd5b600080fd5b6107a481610715565b81146107af57600080fd5b50565b6107bb81610733565b81146107c657600080fd5b50565b6107d28161075d565b81146107dd57600080fd5b5056fea2646970667358221220090b81497fd65940a2e5c6f249a5384d5eba1fb63cc3b1d5c4c84e58e12bf33f64736f6c63430008050033",
          "opcodes": "PUSH1 0x80 PUSH1 0x40 MSTORE CALLVALUE DUP1 ISZERO PUSH2 0x10 JUMPI PUSH1 0x0 DUP1 REVERT JUMPDEST POP PUSH1 0x40 MLOAD PUSH2 0xA0F CODESIZE SUB DUP1 PUSH2 0xA0F DUP4 CODECOPY DUP2 DUP2 ADD PUSH1 0x40 MSTORE DUP2 ADD SWAP1 PUSH2 0x32 SWAP2 SWAP1 PUSH2 0x197 JUMP JUMPDEST PUSH2 0x64 PUSH32 0x169A0B8D3D18611F8398E691EC6D511E13E4D10834A93EF523C1F8C1EEA20F05 PUSH1 0x0 SHL PUSH2 0x17F PUSH1 0x20 SHL PUSH1 0x20 SHR JUMP JUMPDEST PUSH2 0x96 PUSH32 0xD276A97636BC9C7E0D57DD7DD4490EA057ED84E3EBE8652C06AA8E650E27991A PUSH1 0x0 SHL PUSH2 0x17F PUSH1 0x20 SHL PUSH1 0x20 SHR JUMP JUMPDEST PUSH2 0xC8 PUSH32 0x3C50C64C4C8A39513A5A322A7E9EFC3B742C980A91A314D0EB1C145896AF3315 PUSH1 0x0 SHL PUSH2 0x17F PUSH1 0x20 SHL PUSH1 0x20 SHR JUMP JUMPDEST DUP1 PUSH1 0x0 DUP2 SWAP1 SSTORE POP PUSH2 0x101 PUSH32 0xE999C18456403768ECE1B8E3738A9E775DD5043196349EE4E317AE0082298E00 PUSH1 0x0 SHL PUSH2 0x17F PUSH1 0x20 SHL PUSH1 0x20 SHR JUMP JUMPDEST PUSH2 0x133 PUSH32 0x27E0E2BAFB64227F448EF1ECA7ED87EA2299F2D2F0C0D771EE778EB39279B731 PUSH1 0x0 SHL PUSH2 0x17F PUSH1 0x20 SHL PUSH1 0x20 SHR JUMP JUMPDEST PUSH1 0x0 SLOAD PUSH1 0x1 PUSH1 0x0 CALLER PUSH20 0xFFFFFFFFFFFFFFFFFFFFFFFFFFFFFFFFFFFFFFFF AND PUSH20 0xFFFFFFFFFFFFFFFFFFFFFFFFFFFFFFFFFFFFFFFF AND DUP2 MSTORE PUSH1 0x20 ADD SWAP1 DUP2 MSTORE PUSH1 0x20 ADD PUSH1 0x0 KECCAK256 DUP2 SWAP1 SSTORE POP POP PUSH2 0x1EA JUMP JUMPDEST POP JUMP JUMPDEST PUSH1 0x0 DUP2 MLOAD SWAP1 POP PUSH2 0x191 DUP2 PUSH2 0x1D3 JUMP JUMPDEST SWAP3 SWAP2 POP POP JUMP JUMPDEST PUSH1 0x0 PUSH1 0x20 DUP3 DUP5 SUB SLT ISZERO PUSH2 0x1AD JUMPI PUSH2 0x1AC PUSH2 0x1CE JUMP JUMPDEST JUMPDEST PUSH1 0x0 PUSH2 0x1BB DUP5 DUP3 DUP6 ADD PUSH2 0x182 JUMP JUMPDEST SWAP2 POP POP SWAP3 SWAP2 POP POP JUMP JUMPDEST PUSH1 0x0 DUP2 SWAP1 POP SWAP2 SWAP1 POP JUMP JUMPDEST PUSH1 0x0 DUP1 REVERT JUMPDEST PUSH2 0x1DC DUP2 PUSH2 0x1C4 JUMP JUMPDEST DUP2 EQ PUSH2 0x1E7 JUMPI PUSH1 0x0 DUP1 REVERT JUMPDEST POP JUMP JUMPDEST PUSH2 0x816 DUP1 PUSH2 0x1F9 PUSH1 0x0 CODECOPY PUSH1 0x0 RETURN INVALID PUSH1 0x80 PUSH1 0x40 MSTORE CALLVALUE DUP1 ISZERO PUSH2 0x10 JUMPI PUSH1 0x0 DUP1 REVERT JUMPDEST POP PUSH1 0x4 CALLDATASIZE LT PUSH2 0x57 JUMPI PUSH1 0x0 CALLDATALOAD PUSH1 0xE0 SHR DUP1 PUSH4 0x1395B1A4 EQ PUSH2 0x5C JUMPI DUP1 PUSH4 0x5E7C6416 EQ PUSH2 0x7A JUMPI DUP1 PUSH4 0x6F316867 EQ PUSH2 0x96 JUMPI DUP1 PUSH4 0xE3D670D7 EQ PUSH2 0xB2 JUMPI DUP1 PUSH4 0xFEE666AD EQ PUSH2 0xE2 JUMPI JUMPDEST PUSH1 0x0 DUP1 REVERT JUMPDEST PUSH2 0x64 PUSH2 0x112 JUMP JUMPDEST PUSH1 0x40 MLOAD PUSH2 0x71 SWAP2 SWAP1 PUSH2 0x670 JUMP JUMPDEST PUSH1 0x40 MLOAD DUP1 SWAP2 SUB SWAP1 RETURN JUMPDEST PUSH2 0x94 PUSH1 0x4 DUP1 CALLDATASIZE SUB DUP2 ADD SWAP1 PUSH2 0x8F SWAP2 SWAP1 PUSH2 0x5DD JUMP JUMPDEST PUSH2 0x1A0 JUMP JUMPDEST STOP JUMPDEST PUSH2 0xB0 PUSH1 0x4 DUP1 CALLDATASIZE SUB DUP2 ADD SWAP1 PUSH2 0xAB SWAP2 SWAP1 PUSH2 0x60A JUMP JUMPDEST PUSH2 0x1A3 JUMP JUMPDEST STOP JUMPDEST PUSH2 0xCC PUSH1 0x4 DUP1 CALLDATASIZE SUB DUP2 ADD SWAP1 PUSH2 0xC7 SWAP2 SWAP1 PUSH2 0x570 JUMP JUMPDEST PUSH2 0x231 JUMP JUMPDEST PUSH1 0x40 MLOAD PUSH2 0xD9 SWAP2 SWAP1 PUSH2 0x670 JUMP JUMPDEST PUSH1 0x40 MLOAD DUP1 SWAP2 SUB SWAP1 RETURN JUMPDEST PUSH2 0xFC PUSH1 0x4 DUP1 CALLDATASIZE SUB DUP2 ADD SWAP1 PUSH2 0xF7 SWAP2 SWAP1 PUSH2 0x59D JUMP JUMPDEST PUSH2 0x249 JUMP JUMPDEST PUSH1 0x40 MLOAD PUSH2 0x109 SWAP2 SWAP1 PUSH2 0x655 JUMP JUMPDEST PUSH1 0x40 MLOAD DUP1 SWAP2 SUB SWAP1 RETURN JUMPDEST PUSH1 0x0 PUSH2 0x140 PUSH32 0x804C9B39AEFAF3EEF8C1F6F666A65E02FB228213BDD7C14B61D8038316429E23 PUSH1 0x0 SHL PUSH2 0x1A0 JUMP JUMPDEST PUSH2 0x16C PUSH32 0xF6B588A99072F42B44E481D6ED64D07BDA349068CCDFCF01983A4DF9C18362F0 PUSH1 0x0 SHL PUSH2 0x1A0 JUMP JUMPDEST PUSH2 0x198 PUSH32 0x18B661F63E7FE86D5B6DF7F7B5C4D2525F730245F4B8EDC5661FD8933B89CE5B PUSH1 0x0 SHL PUSH2 0x1A0 JUMP JUMPDEST PUSH1 0x0 SLOAD SWAP1 POP SWAP1 JUMP JUMPDEST POP JUMP JUMPDEST PUSH2 0x1CF PUSH32 0x696E56B8ACDC35E687BF8E14FB098EA4E67AAE8D127F55ED884EF791EEA215B9 PUSH1 0x0 SHL PUSH2 0x1A0 JUMP JUMPDEST PUSH2 0x1FB PUSH32 0x6756299965116B02F947F31EB8618E65E8655209F066B97C0BF6D515302444D9 PUSH1 0x0 SHL PUSH2 0x1A0 JUMP JUMPDEST PUSH2 0x227 PUSH32 0x427016BC44485EC982C590FBD50F0E0A0C4AFBD13B69FB65DBC6B7E6E7BF1E6B PUSH1 0x0 SHL PUSH2 0x1A0 JUMP JUMPDEST DUP1 PUSH1 0x0 DUP2 SWAP1 SSTORE POP POP JUMP JUMPDEST PUSH1 0x1 PUSH1 0x20 MSTORE DUP1 PUSH1 0x0 MSTORE PUSH1 0x40 PUSH1 0x0 KECCAK256 PUSH1 0x0 SWAP2 POP SWAP1 POP SLOAD DUP2 JUMP JUMPDEST PUSH1 0x0 PUSH2 0x277 PUSH32 0xC3EB1CCD62D975320554D5C811DE415B0C34A9136C9CC2A6C6F80B310D588D19 PUSH1 0x0 SHL PUSH2 0x1A0 JUMP JUMPDEST PUSH2 0x2A3 PUSH32 0x172F67332D0A70ABCA6E1F8B4376ED1682EC98387100A9070567990FC77A0AD8 PUSH1 0x0 SHL PUSH2 0x1A0 JUMP JUMPDEST PUSH2 0x2CF PUSH32 0x7EF45D1154357C159ED1E172424F5F1ACC0BF52A8E445B8D9D2601ED39043197 PUSH1 0x0 SHL PUSH2 0x1A0 JUMP JUMPDEST PUSH2 0x2FB PUSH32 0xD5BEF40998242A2C87BC8DBF1AA9DEB116AE6306906BE45EA1D6DB4483CC4E44 PUSH1 0x0 SHL PUSH2 0x1A0 JUMP JUMPDEST DUP2 PUSH1 0x1 PUSH1 0x0 CALLER PUSH20 0xFFFFFFFFFFFFFFFFFFFFFFFFFFFFFFFFFFFFFFFF AND PUSH20 0xFFFFFFFFFFFFFFFFFFFFFFFFFFFFFFFFFFFFFFFF AND DUP2 MSTORE PUSH1 0x20 ADD SWAP1 DUP2 MSTORE PUSH1 0x20 ADD PUSH1 0x0 KECCAK256 SLOAD LT ISZERO PUSH2 0x347 JUMPI PUSH1 0x0 DUP1 REVERT JUMPDEST PUSH2 0x373 PUSH32 0x1A46E8EFF3C0BE5FF61E1538FA0A4B392091ED0810E22F53763681F63DC9BC2F PUSH1 0x0 SHL PUSH2 0x1A0 JUMP JUMPDEST PUSH2 0x39F PUSH32 0x9C22E9DAD6C5B1FDCFCC8077D3E859CDE47F440B0D0D7E0ADB196DABD0108856 PUSH1 0x0 SHL PUSH2 0x1A0 JUMP JUMPDEST PUSH2 0x3CB PUSH32 0x3E581B42D35586BA74FF9E72A633026FE32D107C278CF995F143BB17B37F46CC PUSH1 0x0 SHL PUSH2 0x1A0 JUMP JUMPDEST DUP2 PUSH1 0x1 PUSH1 0x0 DUP6 PUSH20 0xFFFFFFFFFFFFFFFFFFFFFFFFFFFFFFFFFFFFFFFF AND PUSH20 0xFFFFFFFFFFFFFFFFFFFFFFFFFFFFFFFFFFFFFFFF AND DUP2 MSTORE PUSH1 0x20 ADD SWAP1 DUP2 MSTORE PUSH1 0x20 ADD PUSH1 0x0 KECCAK256 PUSH1 0x0 DUP3 DUP3 SLOAD PUSH2 0x41A SWAP2 SWAP1 PUSH2 0x68B JUMP JUMPDEST SWAP3 POP POP DUP2 SWAP1 SSTORE POP PUSH2 0x44D PUSH32 0x39E0E79D97180845152F9F8D3DD7202597899642FFEC059DE5C2942457064D4B PUSH1 0x0 SHL PUSH2 0x1A0 JUMP JUMPDEST PUSH2 0x479 PUSH32 0x5B543B13F0CB492C548DC9EFCBEA2FC4660F4133245A0B2CFEB4468170047B63 PUSH1 0x0 SHL PUSH2 0x1A0 JUMP JUMPDEST DUP2 PUSH1 0x1 PUSH1 0x0 CALLER PUSH20 0xFFFFFFFFFFFFFFFFFFFFFFFFFFFFFFFFFFFFFFFF AND PUSH20 0xFFFFFFFFFFFFFFFFFFFFFFFFFFFFFFFFFFFFFFFF AND DUP2 MSTORE PUSH1 0x20 ADD SWAP1 DUP2 MSTORE PUSH1 0x20 ADD PUSH1 0x0 KECCAK256 PUSH1 0x0 DUP3 DUP3 SLOAD PUSH2 0x4C8 SWAP2 SWAP1 PUSH2 0x6E1 JUMP JUMPDEST SWAP3 POP POP DUP2 SWAP1 SSTORE POP PUSH2 0x4FB PUSH32 0x6EF1DE0B3FE20833D04D43F7F4DB9C92195DA217B3157859F0AC9621A021EBD5 PUSH1 0x0 SHL PUSH2 0x1A0 JUMP JUMPDEST PUSH2 0x527 PUSH32 0xA3DCAA2DCD34083CA8223972718F815248AA74B5B451BAA9B06609490950C9BF PUSH1 0x0 SHL PUSH2 0x1A0 JUMP JUMPDEST PUSH1 0x1 SWAP1 POP SWAP3 SWAP2 POP POP JUMP JUMPDEST PUSH1 0x0 DUP2 CALLDATALOAD SWAP1 POP PUSH2 0x540 DUP2 PUSH2 0x79B JUMP JUMPDEST SWAP3 SWAP2 POP POP JUMP JUMPDEST PUSH1 0x0 DUP2 CALLDATALOAD SWAP1 POP PUSH2 0x555 DUP2 PUSH2 0x7B2 JUMP JUMPDEST SWAP3 SWAP2 POP POP JUMP JUMPDEST PUSH1 0x0 DUP2 CALLDATALOAD SWAP1 POP PUSH2 0x56A DUP2 PUSH2 0x7C9 JUMP JUMPDEST SWAP3 SWAP2 POP POP JUMP JUMPDEST PUSH1 0x0 PUSH1 0x20 DUP3 DUP5 SUB SLT ISZERO PUSH2 0x586 JUMPI PUSH2 0x585 PUSH2 0x796 JUMP JUMPDEST JUMPDEST PUSH1 0x0 PUSH2 0x594 DUP5 DUP3 DUP6 ADD PUSH2 0x531 JUMP JUMPDEST SWAP2 POP POP SWAP3 SWAP2 POP POP JUMP JUMPDEST PUSH1 0x0 DUP1 PUSH1 0x40 DUP4 DUP6 SUB SLT ISZERO PUSH2 0x5B4 JUMPI PUSH2 0x5B3 PUSH2 0x796 JUMP JUMPDEST JUMPDEST PUSH1 0x0 PUSH2 0x5C2 DUP6 DUP3 DUP7 ADD PUSH2 0x531 JUMP JUMPDEST SWAP3 POP POP PUSH1 0x20 PUSH2 0x5D3 DUP6 DUP3 DUP7 ADD PUSH2 0x55B JUMP JUMPDEST SWAP2 POP POP SWAP3 POP SWAP3 SWAP1 POP JUMP JUMPDEST PUSH1 0x0 PUSH1 0x20 DUP3 DUP5 SUB SLT ISZERO PUSH2 0x5F3 JUMPI PUSH2 0x5F2 PUSH2 0x796 JUMP JUMPDEST JUMPDEST PUSH1 0x0 PUSH2 0x601 DUP5 DUP3 DUP6 ADD PUSH2 0x546 JUMP JUMPDEST SWAP2 POP POP SWAP3 SWAP2 POP POP JUMP JUMPDEST PUSH1 0x0 PUSH1 0x20 DUP3 DUP5 SUB SLT ISZERO PUSH2 0x620 JUMPI PUSH2 0x61F PUSH2 0x796 JUMP JUMPDEST JUMPDEST PUSH1 0x0 PUSH2 0x62E DUP5 DUP3 DUP6 ADD PUSH2 0x55B JUMP JUMPDEST SWAP2 POP POP SWAP3 SWAP2 POP POP JUMP JUMPDEST PUSH2 0x640 DUP2 PUSH2 0x727 JUMP JUMPDEST DUP3 MSTORE POP POP JUMP JUMPDEST PUSH2 0x64F DUP2 PUSH2 0x75D JUMP JUMPDEST DUP3 MSTORE POP POP JUMP JUMPDEST PUSH1 0x0 PUSH1 0x20 DUP3 ADD SWAP1 POP PUSH2 0x66A PUSH1 0x0 DUP4 ADD DUP5 PUSH2 0x637 JUMP JUMPDEST SWAP3 SWAP2 POP POP JUMP JUMPDEST PUSH1 0x0 PUSH1 0x20 DUP3 ADD SWAP1 POP PUSH2 0x685 PUSH1 0x0 DUP4 ADD DUP5 PUSH2 0x646 JUMP JUMPDEST SWAP3 SWAP2 POP POP JUMP JUMPDEST PUSH1 0x0 PUSH2 0x696 DUP3 PUSH2 0x75D JUMP JUMPDEST SWAP2 POP PUSH2 0x6A1 DUP4 PUSH2 0x75D JUMP JUMPDEST SWAP3 POP DUP3 PUSH32 0xFFFFFFFFFFFFFFFFFFFFFFFFFFFFFFFFFFFFFFFFFFFFFFFFFFFFFFFFFFFFFFFF SUB DUP3 GT ISZERO PUSH2 0x6D6 JUMPI PUSH2 0x6D5 PUSH2 0x767 JUMP JUMPDEST JUMPDEST DUP3 DUP3 ADD SWAP1 POP SWAP3 SWAP2 POP POP JUMP JUMPDEST PUSH1 0x0 PUSH2 0x6EC DUP3 PUSH2 0x75D JUMP JUMPDEST SWAP2 POP PUSH2 0x6F7 DUP4 PUSH2 0x75D JUMP JUMPDEST SWAP3 POP DUP3 DUP3 LT ISZERO PUSH2 0x70A JUMPI PUSH2 0x709 PUSH2 0x767 JUMP JUMPDEST JUMPDEST DUP3 DUP3 SUB SWAP1 POP SWAP3 SWAP2 POP POP JUMP JUMPDEST PUSH1 0x0 PUSH2 0x720 DUP3 PUSH2 0x73D JUMP JUMPDEST SWAP1 POP SWAP2 SWAP1 POP JUMP JUMPDEST PUSH1 0x0 DUP2 ISZERO ISZERO SWAP1 POP SWAP2 SWAP1 POP JUMP JUMPDEST PUSH1 0x0 DUP2 SWAP1 POP SWAP2 SWAP1 POP JUMP JUMPDEST PUSH1 0x0 PUSH20 0xFFFFFFFFFFFFFFFFFFFFFFFFFFFFFFFFFFFFFFFF DUP3 AND SWAP1 POP SWAP2 SWAP1 POP JUMP JUMPDEST PUSH1 0x0 DUP2 SWAP1 POP SWAP2 SWAP1 POP JUMP JUMPDEST PUSH32 0x4E487B7100000000000000000000000000000000000000000000000000000000 PUSH1 0x0 MSTORE PUSH1 0x11 PUSH1 0x4 MSTORE PUSH1 0x24 PUSH1 0x0 REVERT JUMPDEST PUSH1 0x0 DUP1 REVERT JUMPDEST PUSH2 0x7A4 DUP2 PUSH2 0x715 JUMP JUMPDEST DUP2 EQ PUSH2 0x7AF JUMPI PUSH1 0x0 DUP1 REVERT JUMPDEST POP JUMP JUMPDEST PUSH2 0x7BB DUP2 PUSH2 0x733 JUMP JUMPDEST DUP2 EQ PUSH2 0x7C6 JUMPI PUSH1 0x0 DUP1 REVERT JUMPDEST POP JUMP JUMPDEST PUSH2 0x7D2 DUP2 PUSH2 0x75D JUMP JUMPDEST DUP2 EQ PUSH2 0x7DD JUMPI PUSH1 0x0 DUP1 REVERT JUMPDEST POP JUMP INVALID LOG2 PUSH5 0x6970667358 0x22 SLT KECCAK256 MULMOD SIGNEXTEND DUP2 0x49 PUSH32 0xD65940A2E5C6F249A5384D5EBA1FB63CC3B1D5C4C84E58E12BF33F64736F6C63 NUMBER STOP ADDMOD SDIV STOP CALLER "
        },
        "methodIdentifiers": {
          "allOfMoney()": "1395b1a4",
          "balance(address)": "e3d670d7",
          "c_0xad85f869(bytes32)": "5e7c6416",
          "changeMoney(uint256)": "6f316867",
          "transferMoney(address,uint256)": "fee666ad"
        }
      }
    }
  }
}