{
  "_format": "hh-sol-artifact-1",
  "contractName": "TestNft",
  "sourceName": "contracts/SimpleMint.sol",
  "abi": [
    {
      "inputs": [],
      "stateMutability": "nonpayable",
      "type": "constructor"
    },
    {
      "anonymous": false,
      "inputs": [
        {
          "indexed": true,
          "internalType": "address",
          "name": "owner",
          "type": "address"
        },
        {
          "indexed": true,
          "internalType": "address",
          "name": "approved",
          "type": "address"
        },
        {
          "indexed": true,
          "internalType": "uint256",
          "name": "tokenId",
          "type": "uint256"
        }
      ],
      "name": "Approval",
      "type": "event"
    },
    {
      "anonymous": false,
      "inputs": [
        {
          "indexed": true,
          "internalType": "address",
          "name": "owner",
          "type": "address"
        },
        {
          "indexed": true,
          "internalType": "address",
          "name": "operator",
          "type": "address"
        },
        {
          "indexed": false,
          "internalType": "bool",
          "name": "approved",
          "type": "bool"
        }
      ],
      "name": "ApprovalForAll",
      "type": "event"
    },
    {
      "anonymous": false,
      "inputs": [
        {
          "indexed": true,
          "internalType": "address",
          "name": "from",
          "type": "address"
        },
        {
          "indexed": true,
          "internalType": "address",
          "name": "to",
          "type": "address"
        },
        {
          "indexed": true,
          "internalType": "uint256",
          "name": "tokenId",
          "type": "uint256"
        }
      ],
      "name": "Transfer",
      "type": "event"
    },
    {
      "inputs": [],
      "name": "Owner",
      "outputs": [
        {
          "internalType": "address payable",
          "name": "",
          "type": "address"
        }
      ],
      "stateMutability": "view",
      "type": "function"
    },
    {
      "inputs": [
        {
          "internalType": "address",
          "name": "to",
          "type": "address"
        },
        {
          "internalType": "uint256",
          "name": "tokenId",
          "type": "uint256"
        }
      ],
      "name": "approve",
      "outputs": [],
      "stateMutability": "nonpayable",
      "type": "function"
    },
    {
      "inputs": [
        {
          "internalType": "address",
          "name": "owner",
          "type": "address"
        }
      ],
      "name": "balanceOf",
      "outputs": [
        {
          "internalType": "uint256",
          "name": "",
          "type": "uint256"
        }
      ],
      "stateMutability": "view",
      "type": "function"
    },
    {
      "inputs": [
        {
          "internalType": "uint256",
          "name": "_fee",
          "type": "uint256"
        }
      ],
      "name": "changeFee",
      "outputs": [
        {
          "internalType": "uint256",
          "name": "",
          "type": "uint256"
        }
      ],
      "stateMutability": "nonpayable",
      "type": "function"
    },
    {
      "inputs": [],
      "name": "deposit",
      "outputs": [
        {
          "internalType": "uint256",
          "name": "",
          "type": "uint256"
        }
      ],
      "stateMutability": "payable",
      "type": "function"
    },
    {
      "inputs": [],
      "name": "deposits",
      "outputs": [
        {
          "internalType": "uint256",
          "name": "",
          "type": "uint256"
        }
      ],
      "stateMutability": "view",
      "type": "function"
    },
    {
      "inputs": [
        {
          "internalType": "uint256",
          "name": "tokenId",
          "type": "uint256"
        }
      ],
      "name": "getApproved",
      "outputs": [
        {
          "internalType": "address",
          "name": "",
          "type": "address"
        }
      ],
      "stateMutability": "view",
      "type": "function"
    },
    {
      "inputs": [],
      "name": "getBalance",
      "outputs": [
        {
          "internalType": "uint256",
          "name": "",
          "type": "uint256"
        }
      ],
      "stateMutability": "view",
      "type": "function"
    },
    {
      "inputs": [
        {
          "internalType": "address",
          "name": "owner",
          "type": "address"
        },
        {
          "internalType": "address",
          "name": "operator",
          "type": "address"
        }
      ],
      "name": "isApprovedForAll",
      "outputs": [
        {
          "internalType": "bool",
          "name": "",
          "type": "bool"
        }
      ],
      "stateMutability": "view",
      "type": "function"
    },
    {
      "inputs": [
        {
          "internalType": "string",
          "name": "tokenURI",
          "type": "string"
        }
      ],
      "name": "mintNFT",
      "outputs": [
        {
          "internalType": "uint256",
          "name": "",
          "type": "uint256"
        }
      ],
      "stateMutability": "nonpayable",
      "type": "function"
    },
    {
      "inputs": [],
      "name": "name",
      "outputs": [
        {
          "internalType": "string",
          "name": "",
          "type": "string"
        }
      ],
      "stateMutability": "view",
      "type": "function"
    },
    {
      "inputs": [
        {
          "internalType": "uint256",
          "name": "tokenId",
          "type": "uint256"
        }
      ],
      "name": "ownerOf",
      "outputs": [
        {
          "internalType": "address",
          "name": "",
          "type": "address"
        }
      ],
      "stateMutability": "view",
      "type": "function"
    },
    {
      "inputs": [
        {
          "internalType": "address",
          "name": "from",
          "type": "address"
        },
        {
          "internalType": "address",
          "name": "to",
          "type": "address"
        },
        {
          "internalType": "uint256",
          "name": "tokenId",
          "type": "uint256"
        }
      ],
      "name": "safeTransferFrom",
      "outputs": [],
      "stateMutability": "nonpayable",
      "type": "function"
    },
    {
      "inputs": [
        {
          "internalType": "address",
          "name": "from",
          "type": "address"
        },
        {
          "internalType": "address",
          "name": "to",
          "type": "address"
        },
        {
          "internalType": "uint256",
          "name": "tokenId",
          "type": "uint256"
        },
        {
          "internalType": "bytes",
          "name": "_data",
          "type": "bytes"
        }
      ],
      "name": "safeTransferFrom",
      "outputs": [],
      "stateMutability": "nonpayable",
      "type": "function"
    },
    {
      "inputs": [
        {
          "internalType": "address",
          "name": "operator",
          "type": "address"
        },
        {
          "internalType": "bool",
          "name": "approved",
          "type": "bool"
        }
      ],
      "name": "setApprovalForAll",
      "outputs": [],
      "stateMutability": "nonpayable",
      "type": "function"
    },
    {
      "inputs": [
        {
          "internalType": "bytes4",
          "name": "interfaceId",
          "type": "bytes4"
        }
      ],
      "name": "supportsInterface",
      "outputs": [
        {
          "internalType": "bool",
          "name": "",
          "type": "bool"
        }
      ],
      "stateMutability": "view",
      "type": "function"
    },
    {
      "inputs": [],
      "name": "symbol",
      "outputs": [
        {
          "internalType": "string",
          "name": "",
          "type": "string"
        }
      ],
      "stateMutability": "view",
      "type": "function"
    },
    {
      "inputs": [
        {
          "internalType": "uint256",
          "name": "tokenId",
          "type": "uint256"
        }
      ],
      "name": "tokenURI",
      "outputs": [
        {
          "internalType": "string",
          "name": "",
          "type": "string"
        }
      ],
      "stateMutability": "view",
      "type": "function"
    },
    {
      "inputs": [],
      "name": "totalSupply",
      "outputs": [
        {
          "components": [
            {
              "internalType": "uint256",
              "name": "_value",
              "type": "uint256"
            }
          ],
          "internalType": "struct Counters.Counter",
          "name": "",
          "type": "tuple"
        }
      ],
      "stateMutability": "view",
      "type": "function"
    },
    {
      "inputs": [
        {
          "internalType": "address",
          "name": "from",
          "type": "address"
        },
        {
          "internalType": "address",
          "name": "to",
          "type": "address"
        },
        {
          "internalType": "uint256",
          "name": "tokenId",
          "type": "uint256"
        }
      ],
      "name": "transferFrom",
      "outputs": [],
      "stateMutability": "nonpayable",
      "type": "function"
    },
    {
      "inputs": [
        {
          "internalType": "uint256",
          "name": "_amount",
          "type": "uint256"
        }
      ],
      "name": "withdraw",
      "outputs": [],
      "stateMutability": "nonpayable",
      "type": "function"
    }
  ],
  "bytecode": "0x6080604052600060085560006009556008600b553480156200002057600080fd5b506040518060400160405280600581526020017f526f6d656f0000000000000000000000000000000000000000000000000000008152506040518060400160405280600281526020017f524f0000000000000000000000000000000000000000000000000000000000008152508160009080519060200190620000a592919062000108565b508060019080519060200190620000be92919062000108565b50505033600a60006101000a81548173ffffffffffffffffffffffffffffffffffffffff021916908373ffffffffffffffffffffffffffffffffffffffff1602179055506200021d565b8280546200011690620001b8565b90600052602060002090601f0160209004810192826200013a576000855562000186565b82601f106200015557805160ff191683800117855562000186565b8280016001018555821562000186579182015b828111156200018557825182559160200191906001019062000168565b5b50905062000195919062000199565b5090565b5b80821115620001b45760008160009055506001016200019a565b5090565b60006002820490506001821680620001d157607f821691505b60208210811415620001e857620001e7620001ee565b5b50919050565b7f4e487b7100000000000000000000000000000000000000000000000000000000600052602260045260246000fd5b61333e806200022d6000396000f3fe60806040526004361061012a5760003560e01c80636352211e116100ab578063b4a99a4e1161006f578063b4a99a4e14610404578063b88d4fde1461042f578063c87b56dd14610458578063d0e30db014610495578063e985e9c5146104b3578063fb37e883146104f05761012a565b80636352211e146102f95780636a1db1bf1461033657806370a082311461037357806395d89b41146103b0578063a22cb465146103db5761012a565b806318160ddd116100f257806318160ddd1461022857806323b872dd146102535780632e1a7d4d1461027c578063323a5e0b146102a557806342842e0e146102d05761012a565b806301ffc9a71461012f57806306fdde031461016c578063081812fc14610197578063095ea7b3146101d457806312065fe0146101fd575b600080fd5b34801561013b57600080fd5b5061015660048036038101906101519190612021565b61052d565b6040516101639190612517565b60405180910390f35b34801561017857600080fd5b5061018161060f565b60405161018e9190612532565b60405180910390f35b3480156101a357600080fd5b506101be60048036038101906101b991906120c4565b6106a1565b6040516101cb9190612495565b60405180910390f35b3480156101e057600080fd5b506101fb60048036038101906101f69190611fe1565b610726565b005b34801561020957600080fd5b5061021261083e565b60405161021f91906127af565b60405180910390f35b34801561023457600080fd5b5061023d610846565b60405161024a9190612794565b60405180910390f35b34801561025f57600080fd5b5061027a60048036038101906102759190611ecb565b61086a565b005b34801561028857600080fd5b506102a3600480360381019061029e91906120c4565b6108ca565b005b3480156102b157600080fd5b506102ba6109c6565b6040516102c791906127af565b60405180910390f35b3480156102dc57600080fd5b506102f760048036038101906102f29190611ecb565b6109cc565b005b34801561030557600080fd5b50610320600480360381019061031b91906120c4565b6109ec565b60405161032d9190612495565b60405180910390f35b34801561034257600080fd5b5061035d600480360381019061035891906120c4565b610a9e565b60405161036a91906127af565b60405180910390f35b34801561037f57600080fd5b5061039a60048036038101906103959190611e5e565b610ab1565b6040516103a791906127af565b60405180910390f35b3480156103bc57600080fd5b506103c5610b69565b6040516103d29190612532565b60405180910390f35b3480156103e757600080fd5b5061040260048036038101906103fd9190611fa1565b610bfb565b005b34801561041057600080fd5b50610419610d7c565b60405161042691906124b0565b60405180910390f35b34801561043b57600080fd5b5061045660048036038101906104519190611f1e565b610da2565b005b34801561046457600080fd5b5061047f600480360381019061047a91906120c4565b610e04565b60405161048c9190612532565b60405180910390f35b61049d610f56565b6040516104aa91906127af565b60405180910390f35b3480156104bf57600080fd5b506104da60048036038101906104d59190611e8b565b610fba565b6040516104e79190612517565b60405180910390f35b3480156104fc57600080fd5b506105176004803603810190610512919061207b565b61104e565b60405161052491906127af565b60405180910390f35b60007f80ac58cd000000000000000000000000000000000000000000000000000000007bffffffffffffffffffffffffffffffffffffffffffffffffffffffff1916827bffffffffffffffffffffffffffffffffffffffffffffffffffffffff191614806105f857507f5b5e139f000000000000000000000000000000000000000000000000000000007bffffffffffffffffffffffffffffffffffffffffffffffffffffffff1916827bffffffffffffffffffffffffffffffffffffffffffffffffffffffff1916145b80610608575061060782611085565b5b9050919050565b60606000805461061e90612be2565b80601f016020809104026020016040519081016040528092919081815260200182805461064a90612be2565b80156106975780601f1061066c57610100808354040283529160200191610697565b820191906000526020600020905b81548152906001019060200180831161067a57829003601f168201915b5050505050905090565b60006106ac826110ef565b6106eb576040517f08c379a00000000000000000000000000000000000000000000000000000000081526004016106e2906126b4565b60405180910390fd5b6004600083815260200190815260200160002060009054906101000a900473ffffffffffffffffffffffffffffffffffffffff169050919050565b6000610731826109ec565b90508073ffffffffffffffffffffffffffffffffffffffff168373ffffffffffffffffffffffffffffffffffffffff1614156107a2576040517f08c379a000000000000000000000000000000000000000000000000000000000815260040161079990612714565b60405180910390fd5b8073ffffffffffffffffffffffffffffffffffffffff166107c161115b565b73ffffffffffffffffffffffffffffffffffffffff1614806107f057506107ef816107ea61115b565b610fba565b5b61082f576040517f08c379a0000000000000000000000000000000000000000000000000000000008152600401610826906125f4565b60405180910390fd5b6108398383611163565b505050565b600047905090565b61084e611c5f565b6007604051806020016040529081600082015481525050905090565b61087b61087561115b565b8261121c565b6108ba576040517f08c379a00000000000000000000000000000000000000000000000000000000081526004016108b190612754565b60405180910390fd5b6108c58383836112fa565b505050565b600a60009054906101000a900473ffffffffffffffffffffffffffffffffffffffff1673ffffffffffffffffffffffffffffffffffffffff163373ffffffffffffffffffffffffffffffffffffffff161461095a576040517f08c379a000000000000000000000000000000000000000000000000000000000815260040161095190612734565b60405180910390fd5b600a60009054906101000a900473ffffffffffffffffffffffffffffffffffffffff1673ffffffffffffffffffffffffffffffffffffffff166108fc829081150290604051600060405180830381858888f193505050501580156109c2573d6000803e3d6000fd5b5050565b60085481565b6109e783838360405180602001604052806000815250610da2565b505050565b6000806002600084815260200190815260200160002060009054906101000a900473ffffffffffffffffffffffffffffffffffffffff169050600073ffffffffffffffffffffffffffffffffffffffff168173ffffffffffffffffffffffffffffffffffffffff161415610a95576040517f08c379a0000000000000000000000000000000000000000000000000000000008152600401610a8c90612634565b60405180910390fd5b80915050919050565b600081600b81905550600b549050919050565b60008073ffffffffffffffffffffffffffffffffffffffff168273ffffffffffffffffffffffffffffffffffffffff161415610b22576040517f08c379a0000000000000000000000000000000000000000000000000000000008152600401610b1990612614565b60405180910390fd5b600360008373ffffffffffffffffffffffffffffffffffffffff1673ffffffffffffffffffffffffffffffffffffffff168152602001908152602001600020549050919050565b606060018054610b7890612be2565b80601f0160208091040260200160405190810160405280929190818152602001828054610ba490612be2565b8015610bf15780601f10610bc657610100808354040283529160200191610bf1565b820191906000526020600020905b815481529060010190602001808311610bd457829003601f168201915b5050505050905090565b610c0361115b565b73ffffffffffffffffffffffffffffffffffffffff168273ffffffffffffffffffffffffffffffffffffffff161415610c71576040517f08c379a0000000000000000000000000000000000000000000000000000000008152600401610c68906125b4565b60405180910390fd5b8060056000610c7e61115b565b73ffffffffffffffffffffffffffffffffffffffff1673ffffffffffffffffffffffffffffffffffffffff16815260200190815260200160002060008473ffffffffffffffffffffffffffffffffffffffff1673ffffffffffffffffffffffffffffffffffffffff16815260200190815260200160002060006101000a81548160ff0219169083151502179055508173ffffffffffffffffffffffffffffffffffffffff16610d2b61115b565b73ffffffffffffffffffffffffffffffffffffffff167f17307eab39ab6107e8899845ad3d59bd9653f200f220920489ca2b5937696c3183604051610d709190612517565b60405180910390a35050565b600a60009054906101000a900473ffffffffffffffffffffffffffffffffffffffff1681565b610db3610dad61115b565b8361121c565b610df2576040517f08c379a0000000000000000000000000000000000000000000000000000000008152600401610de990612754565b60405180910390fd5b610dfe84848484611556565b50505050565b6060610e0f826110ef565b610e4e576040517f08c379a0000000000000000000000000000000000000000000000000000000008152600401610e4590612694565b60405180910390fd5b6000600660008481526020019081526020016000208054610e6e90612be2565b80601f0160208091040260200160405190810160405280929190818152602001828054610e9a90612be2565b8015610ee75780601f10610ebc57610100808354040283529160200191610ee7565b820191906000526020600020905b815481529060010190602001808311610eca57829003601f168201915b505050505090506000610ef86115b2565b9050600081511415610f0e578192505050610f51565b600082511115610f43578082604051602001610f2b929190612471565b60405160208183030381529060405292505050610f51565b610f4c846115c9565b925050505b919050565b6000600b54600a610f67919061296e565b6001610f739190612a8c565b3414610fb4576040517f08c379a0000000000000000000000000000000000000000000000000000000008152600401610fab90612774565b60405180910390fd5b34905090565b6000600560008473ffffffffffffffffffffffffffffffffffffffff1673ffffffffffffffffffffffffffffffffffffffff16815260200190815260200160002060008373ffffffffffffffffffffffffffffffffffffffff1673ffffffffffffffffffffffffffffffffffffffff16815260200190815260200160002060009054906101000a900460ff16905092915050565b600061105a6007611670565b60006110666007611686565b90506110723382611694565b61107c81846116b2565b80915050919050565b60007f01ffc9a7000000000000000000000000000000000000000000000000000000007bffffffffffffffffffffffffffffffffffffffffffffffffffffffff1916827bffffffffffffffffffffffffffffffffffffffffffffffffffffffff1916149050919050565b60008073ffffffffffffffffffffffffffffffffffffffff166002600084815260200190815260200160002060009054906101000a900473ffffffffffffffffffffffffffffffffffffffff1673ffffffffffffffffffffffffffffffffffffffff1614159050919050565b600033905090565b816004600083815260200190815260200160002060006101000a81548173ffffffffffffffffffffffffffffffffffffffff021916908373ffffffffffffffffffffffffffffffffffffffff160217905550808273ffffffffffffffffffffffffffffffffffffffff166111d6836109ec565b73ffffffffffffffffffffffffffffffffffffffff167f8c5be1e5ebec7d5bd14f71427d1e84f3dd0314c0f7b2291e5b200ac8c7c3b92560405160405180910390a45050565b6000611227826110ef565b611266576040517f08c379a000000000000000000000000000000000000000000000000000000000815260040161125d906125d4565b60405180910390fd5b6000611271836109ec565b90508073ffffffffffffffffffffffffffffffffffffffff168473ffffffffffffffffffffffffffffffffffffffff1614806112e057508373ffffffffffffffffffffffffffffffffffffffff166112c8846106a1565b73ffffffffffffffffffffffffffffffffffffffff16145b806112f157506112f08185610fba565b5b91505092915050565b8273ffffffffffffffffffffffffffffffffffffffff1661131a826109ec565b73ffffffffffffffffffffffffffffffffffffffff1614611370576040517f08c379a0000000000000000000000000000000000000000000000000000000008152600401611367906126d4565b60405180910390fd5b600073ffffffffffffffffffffffffffffffffffffffff168273ffffffffffffffffffffffffffffffffffffffff1614156113e0576040517f08c379a00000000000000000000000000000000000000000000000000000000081526004016113d790612594565b60405180910390fd5b6113eb838383611726565b6113f6600082611163565b6001600360008573ffffffffffffffffffffffffffffffffffffffff1673ffffffffffffffffffffffffffffffffffffffff16815260200190815260200160002060008282546114469190612ae6565b925050819055506001600360008473ffffffffffffffffffffffffffffffffffffffff1673ffffffffffffffffffffffffffffffffffffffff168152602001908152602001600020600082825461149d9190612894565b92505081905550816002600083815260200190815260200160002060006101000a81548173ffffffffffffffffffffffffffffffffffffffff021916908373ffffffffffffffffffffffffffffffffffffffff160217905550808273ffffffffffffffffffffffffffffffffffffffff168473ffffffffffffffffffffffffffffffffffffffff167fddf252ad1be2c89b69c2b068fc378daa952ba7f163c4a11628f55a4df523b3ef60405160405180910390a4505050565b6115618484846112fa565b61156d8484848461172b565b6115ac576040517f08c379a00000000000000000000000000000000000000000000000000000000081526004016115a390612554565b60405180910390fd5b50505050565b606060405180602001604052806000815250905090565b60606115d4826110ef565b611613576040517f08c379a000000000000000000000000000000000000000000000000000000000815260040161160a906126f4565b60405180910390fd5b600061161d6115b2565b9050600081511161163d5760405180602001604052806000815250611668565b80611647846118c2565b604051602001611658929190612471565b6040516020818303038152906040525b915050919050565b6001816000016000828254019250508190555050565b600081600001549050919050565b6116ae828260405180602001604052806000815250611a23565b5050565b6116bb826110ef565b6116fa576040517f08c379a00000000000000000000000000000000000000000000000000000000081526004016116f190612654565b60405180910390fd5b80600660008481526020019081526020016000209080519060200190611721929190611c72565b505050565b505050565b600061174c8473ffffffffffffffffffffffffffffffffffffffff16611a7e565b156118b5578373ffffffffffffffffffffffffffffffffffffffff1663150b7a0261177561115b565b8786866040518563ffffffff1660e01b815260040161179794939291906124cb565b602060405180830381600087803b1580156117b157600080fd5b505af19250505080156117e257506040513d601f19601f820116820180604052508101906117df919061204e565b60015b611865573d8060008114611812576040519150601f19603f3d011682016040523d82523d6000602084013e611817565b606091505b5060008151141561185d576040517f08c379a000000000000000000000000000000000000000000000000000000000815260040161185490612554565b60405180910390fd5b805181602001fd5b63150b7a0260e01b7bffffffffffffffffffffffffffffffffffffffffffffffffffffffff1916817bffffffffffffffffffffffffffffffffffffffffffffffffffffffff1916149150506118ba565b600190505b949350505050565b6060600082141561190a576040518060400160405280600181526020017f30000000000000000000000000000000000000000000000000000000000000008152509050611a1e565b600082905060005b6000821461193c57808061192590612c45565b915050600a8261193591906128ea565b9150611912565b60008167ffffffffffffffff81111561195857611957612d7b565b5b6040519080825280601f01601f19166020018201604052801561198a5781602001600182028036833780820191505090505b5090505b60008514611a17576001826119a39190612ae6565b9150600a856119b29190612c8e565b60306119be9190612894565b60f81b8183815181106119d4576119d3612d4c565b5b60200101907effffffffffffffffffffffffffffffffffffffffffffffffffffffffffffff1916908160001a905350600a85611a1091906128ea565b945061198e565b8093505050505b919050565b611a2d8383611a91565b611a3a600084848461172b565b611a79576040517f08c379a0000000000000000000000000000000000000000000000000000000008152600401611a7090612554565b60405180910390fd5b505050565b600080823b905060008111915050919050565b600073ffffffffffffffffffffffffffffffffffffffff168273ffffffffffffffffffffffffffffffffffffffff161415611b01576040517f08c379a0000000000000000000000000000000000000000000000000000000008152600401611af890612674565b60405180910390fd5b611b0a816110ef565b15611b4a576040517f08c379a0000000000000000000000000000000000000000000000000000000008152600401611b4190612574565b60405180910390fd5b611b5660008383611726565b6001600360008473ffffffffffffffffffffffffffffffffffffffff1673ffffffffffffffffffffffffffffffffffffffff1681526020019081526020016000206000828254611ba69190612894565b92505081905550816002600083815260200190815260200160002060006101000a81548173ffffffffffffffffffffffffffffffffffffffff021916908373ffffffffffffffffffffffffffffffffffffffff160217905550808273ffffffffffffffffffffffffffffffffffffffff16600073ffffffffffffffffffffffffffffffffffffffff167fddf252ad1be2c89b69c2b068fc378daa952ba7f163c4a11628f55a4df523b3ef60405160405180910390a45050565b6040518060200160405280600081525090565b828054611c7e90612be2565b90600052602060002090601f016020900481019282611ca05760008555611ce7565b82601f10611cb957805160ff1916838001178555611ce7565b82800160010185558215611ce7579182015b82811115611ce6578251825591602001919060010190611ccb565b5b509050611cf49190611cf8565b5090565b5b80821115611d11576000816000905550600101611cf9565b5090565b6000611d28611d23846127ef565b6127ca565b905082815260208101848484011115611d4457611d43612daf565b5b611d4f848285612ba0565b509392505050565b6000611d6a611d6584612820565b6127ca565b905082815260208101848484011115611d8657611d85612daf565b5b611d91848285612ba0565b509392505050565b600081359050611da8816132ac565b92915050565b600081359050611dbd816132c3565b92915050565b600081359050611dd2816132da565b92915050565b600081519050611de7816132da565b92915050565b600082601f830112611e0257611e01612daa565b5b8135611e12848260208601611d15565b91505092915050565b600082601f830112611e3057611e2f612daa565b5b8135611e40848260208601611d57565b91505092915050565b600081359050611e58816132f1565b92915050565b600060208284031215611e7457611e73612db9565b5b6000611e8284828501611d99565b91505092915050565b60008060408385031215611ea257611ea1612db9565b5b6000611eb085828601611d99565b9250506020611ec185828601611d99565b9150509250929050565b600080600060608486031215611ee457611ee3612db9565b5b6000611ef286828701611d99565b9350506020611f0386828701611d99565b9250506040611f1486828701611e49565b9150509250925092565b60008060008060808587031215611f3857611f37612db9565b5b6000611f4687828801611d99565b9450506020611f5787828801611d99565b9350506040611f6887828801611e49565b925050606085013567ffffffffffffffff811115611f8957611f88612db4565b5b611f9587828801611ded565b91505092959194509250565b60008060408385031215611fb857611fb7612db9565b5b6000611fc685828601611d99565b9250506020611fd785828601611dae565b9150509250929050565b60008060408385031215611ff857611ff7612db9565b5b600061200685828601611d99565b925050602061201785828601611e49565b9150509250929050565b60006020828403121561203757612036612db9565b5b600061204584828501611dc3565b91505092915050565b60006020828403121561206457612063612db9565b5b600061207284828501611dd8565b91505092915050565b60006020828403121561209157612090612db9565b5b600082013567ffffffffffffffff8111156120af576120ae612db4565b5b6120bb84828501611e1b565b91505092915050565b6000602082840312156120da576120d9612db9565b5b60006120e884828501611e49565b91505092915050565b6120fa81612b2c565b82525050565b61210981612b1a565b82525050565b61211881612b3e565b82525050565b600061212982612851565b6121338185612867565b9350612143818560208601612baf565b61214c81612dbe565b840191505092915050565b60006121628261285c565b61216c8185612878565b935061217c818560208601612baf565b61218581612dbe565b840191505092915050565b600061219b8261285c565b6121a58185612889565b93506121b5818560208601612baf565b80840191505092915050565b60006121ce603283612878565b91506121d982612ddc565b604082019050919050565b60006121f1601c83612878565b91506121fc82612e2b565b602082019050919050565b6000612214602483612878565b915061221f82612e54565b604082019050919050565b6000612237601983612878565b915061224282612ea3565b602082019050919050565b600061225a602c83612878565b915061226582612ecc565b604082019050919050565b600061227d603883612878565b915061228882612f1b565b604082019050919050565b60006122a0602a83612878565b91506122ab82612f6a565b604082019050919050565b60006122c3602983612878565b91506122ce82612fb9565b604082019050919050565b60006122e6602e83612878565b91506122f182613008565b604082019050919050565b6000612309602083612878565b915061231482613057565b602082019050919050565b600061232c603183612878565b915061233782613080565b604082019050919050565b600061234f602c83612878565b915061235a826130cf565b604082019050919050565b6000612372602983612878565b915061237d8261311e565b604082019050919050565b6000612395602f83612878565b91506123a08261316d565b604082019050919050565b60006123b8602183612878565b91506123c3826131bc565b604082019050919050565b60006123db600983612878565b91506123e68261320b565b602082019050919050565b60006123fe603183612878565b915061240982613234565b604082019050919050565b6000612421600c83612878565b915061242c82613283565b602082019050919050565b60208201600082015161244d6000850182612453565b50505050565b61245c81612b96565b82525050565b61246b81612b96565b82525050565b600061247d8285612190565b91506124898284612190565b91508190509392505050565b60006020820190506124aa6000830184612100565b92915050565b60006020820190506124c560008301846120f1565b92915050565b60006080820190506124e06000830187612100565b6124ed6020830186612100565b6124fa6040830185612462565b818103606083015261250c818461211e565b905095945050505050565b600060208201905061252c600083018461210f565b92915050565b6000602082019050818103600083015261254c8184612157565b905092915050565b6000602082019050818103600083015261256d816121c1565b9050919050565b6000602082019050818103600083015261258d816121e4565b9050919050565b600060208201905081810360008301526125ad81612207565b9050919050565b600060208201905081810360008301526125cd8161222a565b9050919050565b600060208201905081810360008301526125ed8161224d565b9050919050565b6000602082019050818103600083015261260d81612270565b9050919050565b6000602082019050818103600083015261262d81612293565b9050919050565b6000602082019050818103600083015261264d816122b6565b9050919050565b6000602082019050818103600083015261266d816122d9565b9050919050565b6000602082019050818103600083015261268d816122fc565b9050919050565b600060208201905081810360008301526126ad8161231f565b9050919050565b600060208201905081810360008301526126cd81612342565b9050919050565b600060208201905081810360008301526126ed81612365565b9050919050565b6000602082019050818103600083015261270d81612388565b9050919050565b6000602082019050818103600083015261272d816123ab565b9050919050565b6000602082019050818103600083015261274d816123ce565b9050919050565b6000602082019050818103600083015261276d816123f1565b9050919050565b6000602082019050818103600083015261278d81612414565b9050919050565b60006020820190506127a96000830184612437565b92915050565b60006020820190506127c46000830184612462565b92915050565b60006127d46127e5565b90506127e08282612c14565b919050565b6000604051905090565b600067ffffffffffffffff82111561280a57612809612d7b565b5b61281382612dbe565b9050602081019050919050565b600067ffffffffffffffff82111561283b5761283a612d7b565b5b61284482612dbe565b9050602081019050919050565b600081519050919050565b600081519050919050565b600082825260208201905092915050565b600082825260208201905092915050565b600081905092915050565b600061289f82612b96565b91506128aa83612b96565b9250827fffffffffffffffffffffffffffffffffffffffffffffffffffffffffffffffff038211156128df576128de612cbf565b5b828201905092915050565b60006128f582612b96565b915061290083612b96565b9250826129105761290f612cee565b5b828204905092915050565b6000808291508390505b60018511156129655780860481111561294157612940612cbf565b5b60018516156129505780820291505b808102905061295e85612dcf565b9450612925565b94509492505050565b600061297982612b96565b915061298483612b96565b92506129b17fffffffffffffffffffffffffffffffffffffffffffffffffffffffffffffffff84846129b9565b905092915050565b6000826129c95760019050612a85565b816129d75760009050612a85565b81600181146129ed57600281146129f757612a26565b6001915050612a85565b60ff841115612a0957612a08612cbf565b5b8360020a915084821115612a2057612a1f612cbf565b5b50612a85565b5060208310610133831016604e8410600b8410161715612a5b5782820a905083811115612a5657612a55612cbf565b5b612a85565b612a68848484600161291b565b92509050818404811115612a7f57612a7e612cbf565b5b81810290505b9392505050565b6000612a9782612b96565b9150612aa283612b96565b9250817fffffffffffffffffffffffffffffffffffffffffffffffffffffffffffffffff0483118215151615612adb57612ada612cbf565b5b828202905092915050565b6000612af182612b96565b9150612afc83612b96565b925082821015612b0f57612b0e612cbf565b5b828203905092915050565b6000612b2582612b76565b9050919050565b6000612b3782612b76565b9050919050565b60008115159050919050565b60007fffffffff0000000000000000000000000000000000000000000000000000000082169050919050565b600073ffffffffffffffffffffffffffffffffffffffff82169050919050565b6000819050919050565b82818337600083830152505050565b60005b83811015612bcd578082015181840152602081019050612bb2565b83811115612bdc576000848401525b50505050565b60006002820490506001821680612bfa57607f821691505b60208210811415612c0e57612c0d612d1d565b5b50919050565b612c1d82612dbe565b810181811067ffffffffffffffff82111715612c3c57612c3b612d7b565b5b80604052505050565b6000612c5082612b96565b91507fffffffffffffffffffffffffffffffffffffffffffffffffffffffffffffffff821415612c8357612c82612cbf565b5b600182019050919050565b6000612c9982612b96565b9150612ca483612b96565b925082612cb457612cb3612cee565b5b828206905092915050565b7f4e487b7100000000000000000000000000000000000000000000000000000000600052601160045260246000fd5b7f4e487b7100000000000000000000000000000000000000000000000000000000600052601260045260246000fd5b7f4e487b7100000000000000000000000000000000000000000000000000000000600052602260045260246000fd5b7f4e487b7100000000000000000000000000000000000000000000000000000000600052603260045260246000fd5b7f4e487b7100000000000000000000000000000000000000000000000000000000600052604160045260246000fd5b600080fd5b600080fd5b600080fd5b600080fd5b6000601f19601f8301169050919050565b60008160011c9050919050565b7f4552433732313a207472616e7366657220746f206e6f6e20455243373231526560008201527f63656976657220696d706c656d656e7465720000000000000000000000000000602082015250565b7f4552433732313a20746f6b656e20616c7265616479206d696e74656400000000600082015250565b7f4552433732313a207472616e7366657220746f20746865207a65726f2061646460008201527f7265737300000000000000000000000000000000000000000000000000000000602082015250565b7f4552433732313a20617070726f766520746f2063616c6c657200000000000000600082015250565b7f4552433732313a206f70657261746f7220717565727920666f72206e6f6e657860008201527f697374656e7420746f6b656e0000000000000000000000000000000000000000602082015250565b7f4552433732313a20617070726f76652063616c6c6572206973206e6f74206f7760008201527f6e6572206e6f7220617070726f76656420666f7220616c6c0000000000000000602082015250565b7f4552433732313a2062616c616e636520717565727920666f7220746865207a6560008201527f726f206164647265737300000000000000000000000000000000000000000000602082015250565b7f4552433732313a206f776e657220717565727920666f72206e6f6e657869737460008201527f656e7420746f6b656e0000000000000000000000000000000000000000000000602082015250565b7f45524337323155524953746f726167653a2055524920736574206f66206e6f6e60008201527f6578697374656e7420746f6b656e000000000000000000000000000000000000602082015250565b7f4552433732313a206d696e7420746f20746865207a65726f2061646472657373600082015250565b7f45524337323155524953746f726167653a2055524920717565727920666f722060008201527f6e6f6e6578697374656e7420746f6b656e000000000000000000000000000000602082015250565b7f4552433732313a20617070726f76656420717565727920666f72206e6f6e657860008201527f697374656e7420746f6b656e0000000000000000000000000000000000000000602082015250565b7f4552433732313a207472616e73666572206f6620746f6b656e2074686174206960008201527f73206e6f74206f776e0000000000000000000000000000000000000000000000602082015250565b7f4552433732314d657461646174613a2055524920717565727920666f72206e6f60008201527f6e6578697374656e7420746f6b656e0000000000000000000000000000000000602082015250565b7f4552433732313a20617070726f76616c20746f2063757272656e74206f776e6560008201527f7200000000000000000000000000000000000000000000000000000000000000602082015250565b7f4e6f74206f776e65720000000000000000000000000000000000000000000000600082015250565b7f4552433732313a207472616e736665722063616c6c6572206973206e6f74206f60008201527f776e6572206e6f7220617070726f766564000000000000000000000000000000602082015250565b7f4d4f4e45592055204b4f4e570000000000000000000000000000000000000000600082015250565b6132b581612b1a565b81146132c057600080fd5b50565b6132cc81612b3e565b81146132d757600080fd5b50565b6132e381612b4a565b81146132ee57600080fd5b50565b6132fa81612b96565b811461330557600080fd5b5056fea26469706673582212205438d8f410ce5b5d9bfb54e366eec0466e5cfe103c86cc59c6af10997683340d64736f6c63430008050033",
  "linkReferences": {},
  "deployedLinkReferences": {}
}