{
  "_format": "hh-sol-artifact-1",
  "contractName": "MyContract",
  "sourceName": "contracts/MyContacts.sol",
  "abi": [
    {
      "inputs": [
        {
          "internalType": "uint256",
          "name": "_money",
          "type": "uint256"
        }
      ],
      "stateMutability": "nonpayable",
      "type": "constructor"
    },
    {
      "inputs": [],
      "name": "allOfMoney",
      "outputs": [
        {
          "internalType": "uint256",
          "name": "",
          "type": "uint256"
        }
      ],
      "stateMutability": "view",
      "type": "function"
    },
    {
      "inputs": [
        {
          "internalType": "address",
          "name": "",
          "type": "address"
        }
      ],
      "name": "balance",
      "outputs": [
        {
          "internalType": "uint256",
          "name": "",
          "type": "uint256"
        }
      ],
      "stateMutability": "view",
      "type": "function"
    },
    {
      "inputs": [
        {
          "internalType": "bytes32",
          "name": "c__0xad85f869",
          "type": "bytes32"
        }
      ],
      "name": "c_0xad85f869",
      "outputs": [],
      "stateMutability": "pure",
      "type": "function"
    },
    {
      "inputs": [
        {
          "internalType": "uint256",
          "name": "_money",
          "type": "uint256"
        }
      ],
      "name": "changeMoney",
      "outputs": [],
      "stateMutability": "nonpayable",
      "type": "function"
    },
    {
      "inputs": [
        {
          "internalType": "address",
          "name": "to",
          "type": "address"
        },
        {
          "internalType": "uint256",
          "name": "_value",
          "type": "uint256"
        }
      ],
      "name": "transferMoney",
      "outputs": [
        {
          "internalType": "bool",
          "name": "",
          "type": "bool"
        }
      ],
      "stateMutability": "nonpayable",
      "type": "function"
    }
  ],
  "bytecode": "0x608060405234801561001057600080fd5b50604051610a0f380380610a0f83398181016040528101906100329190610197565b6100647f169a0b8d3d18611f8398e691ec6d511e13e4d10834a93ef523c1f8c1eea20f0560001b61017f60201b60201c565b6100967fd276a97636bc9c7e0d57dd7dd4490ea057ed84e3ebe8652c06aa8e650e27991a60001b61017f60201b60201c565b6100c87f3c50c64c4c8a39513a5a322a7e9efc3b742c980a91a314d0eb1c145896af331560001b61017f60201b60201c565b806000819055506101017fe999c18456403768ece1b8e3738a9e775dd5043196349ee4e317ae0082298e0060001b61017f60201b60201c565b6101337f27e0e2bafb64227f448ef1eca7ed87ea2299f2d2f0c0d771ee778eb39279b73160001b61017f60201b60201c565b600054600160003373ffffffffffffffffffffffffffffffffffffffff1673ffffffffffffffffffffffffffffffffffffffff16815260200190815260200160002081905550506101ea565b50565b600081519050610191816101d3565b92915050565b6000602082840312156101ad576101ac6101ce565b5b60006101bb84828501610182565b91505092915050565b6000819050919050565b600080fd5b6101dc816101c4565b81146101e757600080fd5b50565b610816806101f96000396000f3fe608060405234801561001057600080fd5b50600436106100575760003560e01c80631395b1a41461005c5780635e7c64161461007a5780636f31686714610096578063e3d670d7146100b2578063fee666ad146100e2575b600080fd5b610064610112565b6040516100719190610670565b60405180910390f35b610094600480360381019061008f91906105dd565b6101a0565b005b6100b060048036038101906100ab919061060a565b6101a3565b005b6100cc60048036038101906100c79190610570565b610231565b6040516100d99190610670565b60405180910390f35b6100fc60048036038101906100f7919061059d565b610249565b6040516101099190610655565b60405180910390f35b60006101407f804c9b39aefaf3eef8c1f6f666a65e02fb228213bdd7c14b61d8038316429e2360001b6101a0565b61016c7ff6b588a99072f42b44e481d6ed64d07bda349068ccdfcf01983a4df9c18362f060001b6101a0565b6101987f18b661f63e7fe86d5b6df7f7b5c4d2525f730245f4b8edc5661fd8933b89ce5b60001b6101a0565b600054905090565b50565b6101cf7f696e56b8acdc35e687bf8e14fb098ea4e67aae8d127f55ed884ef791eea215b960001b6101a0565b6101fb7f6756299965116b02f947f31eb8618e65e8655209f066b97c0bf6d515302444d960001b6101a0565b6102277f427016bc44485ec982c590fbd50f0e0a0c4afbd13b69fb65dbc6b7e6e7bf1e6b60001b6101a0565b8060008190555050565b60016020528060005260406000206000915090505481565b60006102777fc3eb1ccd62d975320554d5c811de415b0c34a9136c9cc2a6c6f80b310d588d1960001b6101a0565b6102a37f172f67332d0a70abca6e1f8b4376ed1682ec98387100a9070567990fc77a0ad860001b6101a0565b6102cf7f7ef45d1154357c159ed1e172424f5f1acc0bf52a8e445b8d9d2601ed3904319760001b6101a0565b6102fb7fd5bef40998242a2c87bc8dbf1aa9deb116ae6306906be45ea1d6db4483cc4e4460001b6101a0565b81600160003373ffffffffffffffffffffffffffffffffffffffff1673ffffffffffffffffffffffffffffffffffffffff16815260200190815260200160002054101561034757600080fd5b6103737f1a46e8eff3c0be5ff61e1538fa0a4b392091ed0810e22f53763681f63dc9bc2f60001b6101a0565b61039f7f9c22e9dad6c5b1fdcfcc8077d3e859cde47f440b0d0d7e0adb196dabd010885660001b6101a0565b6103cb7f3e581b42d35586ba74ff9e72a633026fe32d107c278cf995f143bb17b37f46cc60001b6101a0565b81600160008573ffffffffffffffffffffffffffffffffffffffff1673ffffffffffffffffffffffffffffffffffffffff168152602001908152602001600020600082825461041a919061068b565b9250508190555061044d7f39e0e79d97180845152f9f8d3dd7202597899642ffec059de5c2942457064d4b60001b6101a0565b6104797f5b543b13f0cb492c548dc9efcbea2fc4660f4133245a0b2cfeb4468170047b6360001b6101a0565b81600160003373ffffffffffffffffffffffffffffffffffffffff1673ffffffffffffffffffffffffffffffffffffffff16815260200190815260200160002060008282546104c891906106e1565b925050819055506104fb7f6ef1de0b3fe20833d04d43f7f4db9c92195da217b3157859f0ac9621a021ebd560001b6101a0565b6105277fa3dcaa2dcd34083ca8223972718f815248aa74b5b451baa9b06609490950c9bf60001b6101a0565b6001905092915050565b6000813590506105408161079b565b92915050565b600081359050610555816107b2565b92915050565b60008135905061056a816107c9565b92915050565b60006020828403121561058657610585610796565b5b600061059484828501610531565b91505092915050565b600080604083850312156105b4576105b3610796565b5b60006105c285828601610531565b92505060206105d38582860161055b565b9150509250929050565b6000602082840312156105f3576105f2610796565b5b600061060184828501610546565b91505092915050565b6000602082840312156106205761061f610796565b5b600061062e8482850161055b565b91505092915050565b61064081610727565b82525050565b61064f8161075d565b82525050565b600060208201905061066a6000830184610637565b92915050565b60006020820190506106856000830184610646565b92915050565b60006106968261075d565b91506106a18361075d565b9250827fffffffffffffffffffffffffffffffffffffffffffffffffffffffffffffffff038211156106d6576106d5610767565b5b828201905092915050565b60006106ec8261075d565b91506106f78361075d565b92508282101561070a57610709610767565b5b828203905092915050565b60006107208261073d565b9050919050565b60008115159050919050565b6000819050919050565b600073ffffffffffffffffffffffffffffffffffffffff82169050919050565b6000819050919050565b7f4e487b7100000000000000000000000000000000000000000000000000000000600052601160045260246000fd5b600080fd5b6107a481610715565b81146107af57600080fd5b50565b6107bb81610733565b81146107c657600080fd5b50565b6107d28161075d565b81146107dd57600080fd5b5056fea2646970667358221220090b81497fd65940a2e5c6f249a5384d5eba1fb63cc3b1d5c4c84e58e12bf33f64736f6c63430008050033",
  "linkReferences": {},
  "deployedLinkReferences": {}
}