{
  "_format": "hh-sol-artifact-1",
  "contractName": "MyContract",
  "sourceName": "contracts/MyContacts.sol",
  "abi": [
    {
      "inputs": [
        {
          "internalType": "uint256",
          "name": "_money",
          "type": "uint256"
        }
      ],
      "stateMutability": "nonpayable",
      "type": "constructor"
    },
    {
      "inputs": [],
      "name": "allOfMoney",
      "outputs": [
        {
          "internalType": "uint256",
          "name": "",
          "type": "uint256"
        }
      ],
      "stateMutability": "view",
      "type": "function"
    },
    {
      "inputs": [
        {
          "internalType": "address",
          "name": "",
          "type": "address"
        }
      ],
      "name": "balance",
      "outputs": [
        {
          "internalType": "uint256",
          "name": "",
          "type": "uint256"
        }
      ],
      "stateMutability": "view",
      "type": "function"
    },
    {
      "inputs": [
        {
          "internalType": "uint256",
          "name": "_money",
          "type": "uint256"
        }
      ],
      "name": "changeMoney",
      "outputs": [],
      "stateMutability": "nonpayable",
      "type": "function"
    },
    {
      "inputs": [
        {
          "internalType": "address",
          "name": "to",
          "type": "address"
        },
        {
          "internalType": "uint256",
          "name": "_value",
          "type": "uint256"
        }
      ],
      "name": "transferMoney",
      "outputs": [
        {
          "internalType": "bool",
          "name": "",
          "type": "bool"
        }
      ],
      "stateMutability": "nonpayable",
      "type": "function"
    }
  ],
  "bytecode": "0x608060405234801561001057600080fd5b506040516105983803806105988339818101604052810190610032919061009a565b80600081905550600054600160003373ffffffffffffffffffffffffffffffffffffffff1673ffffffffffffffffffffffffffffffffffffffff16815260200190815260200160002081905550506100ed565b600081519050610094816100d6565b92915050565b6000602082840312156100b0576100af6100d1565b5b60006100be84828501610085565b91505092915050565b6000819050919050565b600080fd5b6100df816100c7565b81146100ea57600080fd5b50565b61049c806100fc6000396000f3fe608060405234801561001057600080fd5b506004361061004c5760003560e01c80631395b1a4146100515780636f3168671461006f578063e3d670d71461008b578063fee666ad146100bb575b600080fd5b6100596100eb565b6040516100669190610317565b60405180910390f35b610089600480360381019061008491906102b1565b6100f4565b005b6100a560048036038101906100a09190610244565b6100fe565b6040516100b29190610317565b60405180910390f35b6100d560048036038101906100d09190610271565b610116565b6040516100e291906102fc565b60405180910390f35b60008054905090565b8060008190555050565b60016020528060005260406000206000915090505481565b600081600160003373ffffffffffffffffffffffffffffffffffffffff1673ffffffffffffffffffffffffffffffffffffffff16815260200190815260200160002054101561016457600080fd5b81600160008573ffffffffffffffffffffffffffffffffffffffff1673ffffffffffffffffffffffffffffffffffffffff16815260200190815260200160002060008282546101b39190610332565b9250508190555081600160003373ffffffffffffffffffffffffffffffffffffffff1673ffffffffffffffffffffffffffffffffffffffff16815260200190815260200160002060008282546102099190610388565b925050819055506001905092915050565b60008135905061022981610438565b92915050565b60008135905061023e8161044f565b92915050565b60006020828403121561025a57610259610433565b5b60006102688482850161021a565b91505092915050565b6000806040838503121561028857610287610433565b5b60006102968582860161021a565b92505060206102a78582860161022f565b9150509250929050565b6000602082840312156102c7576102c6610433565b5b60006102d58482850161022f565b91505092915050565b6102e7816103ce565b82525050565b6102f6816103fa565b82525050565b600060208201905061031160008301846102de565b92915050565b600060208201905061032c60008301846102ed565b92915050565b600061033d826103fa565b9150610348836103fa565b9250827fffffffffffffffffffffffffffffffffffffffffffffffffffffffffffffffff0382111561037d5761037c610404565b5b828201905092915050565b6000610393826103fa565b915061039e836103fa565b9250828210156103b1576103b0610404565b5b828203905092915050565b60006103c7826103da565b9050919050565b60008115159050919050565b600073ffffffffffffffffffffffffffffffffffffffff82169050919050565b6000819050919050565b7f4e487b7100000000000000000000000000000000000000000000000000000000600052601160045260246000fd5b600080fd5b610441816103bc565b811461044c57600080fd5b50565b610458816103fa565b811461046357600080fd5b5056fea2646970667358221220f8245c2409bd23a11c8e83926a126eb52d0d48110ea90d80ae45f95df96df53b64736f6c63430008050033",
  "linkReferences": {},
  "deployedLinkReferences": {}
}